S013000068656C6C6F5F776F726C642E7372656376
S11300000030002081180000370D0000DB110000D3
S113001000000000000000000000000000000000DC
S1130020000000000000000000000000E3140000D5
S11300300000000000000000FB1600009B190000F7
S1130040E9190000E9190000E9190000E9190000A4
S1130050E9190000E9190000E9190000E919000094
S1130060E9190000E9190000E9190000E919000084
S1130070E9190000E9190000E9190000E919000074
S1130080E9190000E9190000E9190000E919000064
S1130090E9190000E9190000E9190000E919000054
S11300A0E9190000E9190000E9190000E919000044
S11300B0E9190000E9190000E9190000E919000034
S1130400FFFFFFFFFFFFFFFFFFFFFFFFFE3DFFFFBB
S1130410F7B594B00020049016980A90169800211D
S1130420C943884201D1024816901C001C9D08E073
S1130430FEFFFF7F1499159A90470498401C04907E
S1130440641C2078002800D13CE2252806D01499A9
S1130450159A90470498401C0490F1E701206946DE
S113046008730027002102E0380001270743002910
S11304701FD1641C207820280CD0232812D02B28CC
S113048004D02D28F0D0302808D00FE038000227FF
S11304900743ECE7380004270743E8E73800082758
S11304A00743E4E7380010270743E0E7641E01210F
S11304B0DDE700200590002105E0059A0A235A4350
S11304C0303810180590002908D1641C20780200E7
S11304D0303A092AF1D9641E0121F4E70622641C8A
S11304E020782E2811D10022002103E00A235A4348
S11304F030381218002909D1641C20780300303BDD
S1130500092BF3D9641E0121F4E7641E641C2078CE
S11305104C2810D0682802D06C2806D00CE0641C4B
S11305202078682800D0641E07E0641C20786C28BA
S113053000D0641E01E000E0641E641C2078010009
S1130540582900D189E0622900D109E1632900D149
S113055072E1642913D0692911D06E2900D1ACE16C
S11305606F2900D1EEE0702900D107E1732900D191
S11305706CE1752900D112E178296BD05AE728681B
S11305802D1D09906846007B00900A23012209A9C9
S11305900BA800F09FF906000BA880190890099891
S11305A0002803D52D200390761C0DE0B80703D551
S11305B02B200390761C07E0780703D520200390B6
S11305C0761C01E00020039000200790380719D51D
S11305D00398002806D014990398159A9047049814
S11305E0401C04900120079016A8029014980190D2
S11305F01598009004AB059A3100302000F0B2F950
S1130600059E19E0F80717D416A8029014980190D3
S11306101598009004AB059A3100202000F0A2F94F
S11306200398002806D014990398159A90470498C3
S1130630401C0490012007900798002809D10398D2
S1130640002806D014990398159A90470498401CE2
S11306500490DEE000206946087328682D1D06908A
S11306606846007B00901023002206A90BA800F026
S113067031F906000BA8801908900020079038076C
S113068022D5F80612D514993020159A9047684659
S1130690007B002801D0582000E078201499159A96
S11306A090470498801C04900120079016A802909B
S11306B0149801901598009004AB059A31003020ED
S11306C000F050F9059E25E0F80723D4F80600D57C
S11306D0B61C16A80290149801901598009004ABCB
S11306E0059A3100202000F03DF9F80612D514993E
S11306F03020159A90476846007B002801D0582086
S113070000E078201499159A90470498801C04906E
S113071001200790F80614D50798002811D11499E0
S11307203020159A90476846007B002801D0582055
S113073000E078201499159A90470498801C04903E
S1130740B61C66E028682D1D06906846007B009064
S11307500823002206A90BA800F0BCF806002BE031
S113076028682D1D06906846007B00900223002215
S113077006A90BA800F0AEF806001DE028682D1DA0
S1130780069028682D1D06906846007B0090102373
S1130790002206A90BA800F09DF806000CE02868CA
S11307A02D1D06906846007B00900A23002206A9AE
S11307B00BA800F08FF806000BA8801908903807E2
S11307C00DD516A80290149801901598009004ABCA
S11307D0059A3100302000F0C5F8059E19E0F807AD
S11307E017D416A80290149801901598009004ABA1
S11307F0059A3100202000F0B5F80AE01499089811
S11308000078159A90470898401E08900498401C58
S11308100490089800780028F0D1F8070BD516A8A2
S11308200290149801901598009004AB059A310039
S1130830202000F097F803E628682D1DC0B2149913
S1130840159A90470498401C0490F9E528682D1DDA
S11308500390039800282FD0039800F097F806001F
S1130860F80717D416A802901498019015980090D0
S113087004AB059A3100202000F074F80AE01499C2
S113088003980078159A90470398401C03900498A5
S1130890401C0490039800780028F0D1F8070BD589
S11308A016A80290149801901598009004AB059A2C
S11308B03100202000F056F8C2E528682D1D049967
S11308C00160BDE51698002801D0049800E00A985C
S11308D017B0F0BDF0B51C000026050000202870FC
S11308E06D1C002A1BD00F68002F09D130202870FE
S11308F0761C3000F0BD303207002A706D1C761C67
S1130900002FF6D03800210000F05EF801006143AA
S11309107A1A002AEFD5D1430A003132ECE70F6886
S1130920002F1ED130202870761CE2E761220A3A9B
S113093080180F0028706D1C761C002FD9D0380049
S1130940210000F044F8010008006043381A0A2826
S113095001D23030EDE76A46127D002AE6D041220A
S1130960E5E7EAE7FEB507000C00089D099E09E0EB
S113097031003800C0B2A84702980068401C0299B0
S11309800860641C01988442F2DBF7BD010000E0BA
S1130990491C0A78002AFBD1081A7047F44600283B
S11309A004D4494200F013F8404260474042002911
S11309B005D45FD000F00BF84042494260474942F9
S11309C000F005F84942604703460B43E6D4002291
S11309D0030A8B420BD203098B4219D243088B4280
S11309E02ED2411A00D20146524110467047FF22CE
S11309F009023FD012068B4205D3121209028B4220
S1130A0001D31212090203098B4219D300E0090A27
S1130A10C3098B4201D3CB01C01A524183098B42D3
S1130A2001D38B01C01A524143098B4201D34B01BC
S1130A30C01A524103098B4201D30B01C01A52411F
S1130A40C3088B4201D3CB00C01A524183088B42A6
S1130A5001D38B00C01A524143088B4201D34B008F
S1130A60C01A5241884200D3401A5241CFD20146A3
S1130A701046704708B500F001F808BD704730B45F
S1130A80012100220368001D002B0BD00468001D07
S1130A900C4202D04D466D1E64192260241D1B1F9A
S1130AA0F0D0FAE730BC704770B506000C001500B2
S1130AB0202C06D389228D498D4800F026F900F0B8
S1130AC023F9EDB204204443301980214905014340
S1130AD00D6070BD70B506000C001500202C06D307
S1130AE09A228249824800F010F900F00DF9EDB223
S1130AF0680004214C433119842252050A431060D2
S1130B0070BD70B506000C001500202C06D3AD2274
S1130B107649774800F0F9F800F0F6F8EDB2A8004D
S1130B2004214C433119882252050A43106070BDD8
S1130B3070B506000C001500202C06D3C4226B49A6
S1130B406B4800F0E2F800F0DFF8EDB22801042170
S1130B504C433119902252050A43106070BD70B5A0
S1130B6006000C001500202C06D3EA225F496048D9
S1130B7000F0CBF800F0C8F8EDB2A80104214C4312
S1130B803119982252050A43106070BD70B50600F1
S1130B900C001500202C06D3FD225449544800F0C3
S1130BA0B4F800F0B1F8EDB2280204214C43311935
S1130BB0504A0A43106070BD80B5002806D0012851
S1130BC028D0022845D0042871D071E000220421E5
S1130BD04948FFF7ADFF012204214748FFF7D6FF3C
S1130BE0012204214448FFF75FFF01220421424807
S1130BF0FFF770FF00220D213F48FFF7B0FF0122ED
S1130C000D213D48FFF7C2FF01220D213A48FFF7AD
S1130C1078FF4DE0002212213848FFF7A0FF01229F
S1130C2012213648FFF7B2FF012212213348FFF7A1
S1130C3068FF002213213148FFF791FF012213219D
S1130C402E48FFF7A3FF012213212C48FFF759FF79
S1130C502EE0012201212A48FFF798FF00220221F9
S1130C602748FFF765FF012202212548FFF78EFF81
S1130C70012202212248FFF717FF01220221204806
S1130C80FFF728FF002203211D48FFF751FF01222F
S1130C9003211B48FFF77AFF012203211848FFF7BD
S1130CA003FF012203211648FFF714FF00E0FFE7CA
S1130CB001BD80B5002802D001280BD015E0022226
S1130CC001210D48FFF762FF022202210A48FFF7C3
S1130CD05DFF0AE0032200210A48FFF757FF0322C1
S1130CE001210848FFF752FFFFE701BD1C16000071
S1130CF0BC190000000010140090044000A004403F
S1130D0000B0044000D00440704700B583B00091A7
S1130D10019202906A4604491820ABBE002801D112
S1130D2000F004F803B000BD1010020080B50120EB
S1130D3000F002F801BDFEE780B5C046C046024A95
S1130D4011001820ABBEFBE7260002000821C01CDE
S1130D508C2252050243117070470421C01C882262
S1130D6052050243117070470901801C90225205FC
S1130D70024311707047C9B2C9040830CC2252052D
S1130D80024311607047C9B289040830C822520571
S1130D90024311607047C9B24903B42252050243A9
S1130DA011607047C9B20A00520904235A438018DB
S1130DB05E4A8018C9B2CA06D20ED2050243802008
S1130DC0400510430122C906C90E8A4002607047DB
S1130DD080B500F0DEF802BD80B56C215448FFF701
S1130DE0E1FF01BD70B584B004000E0051480078E5
S1130DF0002801D0032036E04E48027020004D49FF
S1130E004870D2B2102A02D0112A2ED05FE0684670
S1130E1049490A68026068460421614345584548C7
S1130E2045602000FFF7D8FF2000FFF7D1FF320014
S1130E300100280000F04CF900212800FFF794FF7E
S1130E400021280000F074F92800FFF77FFF280034
S1130E50FFF783FF39483749886039483549C86006
S1130E6034484470002004B070BD01A835490CC951
S1130E700CC00839083801A80421614345582D489D
S1130E804560200000F0ECF8200000F0A7F83200E4
S1130E900100280000F0C2F90021280000F02EFA19
S1130EA00021280000F043FA00212800FFF773FF17
S1130EB001212800FFF75FFF01212800FFF763FFEE
S1130EC021481C49886021481A49C860C8E70120A4
S1130ED0C9E70EB400B582B003A900910300002253
S1130EE0D2431B490020FFF793FA029906B0084742
S1130EF080B569460870012269460E4840680D4B6A
S1130F009B689847002002BD80B50021FFF7F0FFE1
S1130F10012002BD80B50122694606484068054BA0
S1130F20DB6898476846007802BD0000281000007E
S1130F30007004400CF0FF1FF01900006B1100005A
S1130F4093110000E01900005F13000087130000F4
S1130F50F10E000010B4C9B20A00520904235A4326
S1130F608218134BD218C9B2CB06DB0EDB05134330
S1130F70802252051A430123CC06E40EA3401360D9
S1130F8010BC704712494018124901430868C0B2A6
S1130F90704710B5224800F067FA04002A48FFF7AA
S1130FA0F1FF401C01002000FFF711FD10BD0000FF
S1130FB02810000080B50848006800F085FA002871
S1130FC002D02248006800E0002002BD00000000BA
S1130FD04410000000001018F419000070B5060059
S1130FE03100194800F09DFA0400E4B2012C04D049
S1130FF00FD3032C08D003D30BE0084805000AE004
S1131000FFF7D8FF050006E0054800F01DFA0500CB
S113101001E000200500280070BD0000006CDC0227
S11310200040064010B50400052C06D3094A0849BF
S11310300948FFF76AFEFFF767FE0848015D0248AA
S1131040FFF788FF10BD0000007004401CF0FF1F74
S1131050FC1600004F0200004418000000F0FF1FBF
S113106010B50400022C06D3084A07490848FFF7C4
S11310704CFEFFF749FE0748015D0248FFF76AFF8F
S113108010BD000000700440FC16000012030000B4
S11310900418000008F0FF1F00B5001D9C2149053D
S11310A001430878C0B2002801D0012000E00020EC
S11310B0C0B200BD00B5001D942149050143087864
S11310C0C0B2002801D0012000E00020C0B200BD61
S11310D0F0B504000D001600280010217143FFF73D
S11310E076FC0700BFB280208001874202DABFB2DB
S11310F0002F01D101201AE0380080B2000A8121BA
S1131100490521430870380060702020684310218D
S11311107143FFF75CFCBFB220217943411A0800F8
S113112022000A3281235B05134318700020F0BDAE
S113113010B40A00D2B25208520003009B1C84244B
S113114064051C4322700A00D207D20F03009B1CC3
S1131150802464051C43227010BC70470279C1715D
S113116070470279C3790B70704770B506000C00A4
S113117015002800451E00280AD03000FFF78CFF18
S11311800028FAD021783000FFF7E8FF641CF0E76C
S113119070BDF8B504000E00150000272800451E98
S11311A0002817D02000FFF785FF0028FAD031006F
S11311B02000FFF7D6FF761C2000001D8C21490576
S11311C001430878C0B20028E8D02079E1790E22E2
S11311D01700E3E73800C0B2F2BDFEE7C9B2C16050
S11311E07047C2680A70704700B5001DDC214905CC
S11311F001430868002801D0012000E00020C0B2AB
S113120000BD00B5001DD42149050143086800282C
S113121001D0012000E00020C0B200BDF1B584B0CF
S11312200C00150004200190200001996943FFF788
S1131230CEFB69460880200001996A461288514312
S1131240FFF7C5FB0700BD4202D2781B029001E004
S1131250E81B029005200600B6B2212E24DA2000F5
S11312602900B6B27143FFF7B2FB694648802000FB
S1131270B6B2694649887143FFF7A9FB0700BD422E
S113128002D2781B039001E0E81B039002980399B3
S1131290884207D303980290B6B201966846408804
S11312A069460880761CD7E728006421FFF78FFB86
S11312B003214843029981421DD20198042809D38D
S11312C00198082806D2802080020499C42252057D
S11312D00A4310600198401E00060499E122520559
S11312E00A431060684600880499832252050A4321
S11312F01060002000E0012005B0F0BD10B5C9B2B7
S1131300022906D180229205F4235B0503431A6067
S11313100CE0C9B20A0103000833902464051C439D
S113132022600022F4235B0503431A6010BD10B44D
S11313300A00D2B25208D2B2520003000833842405
S113134064051C432260C9B20A00D207D20F03000D
S11313500833802464051C43226010BC704770B5B8
S113136006000C0015002800451E00280AD0300095
S1131370FFF73AFF0028FAD021783000FFF72EFF5C
S1131380641CF0E770BDF8B504000E0015000027DA
S11313902800451E00281CD02000FFF732FF00283B
S11313A0FAD031002000FFF71CFF761C2000001D3E
S11313B0CC214905014308680028E9D080200003B6
S11313C02100091DCC2252050A4310600D2007009C
S11313D0DEE73800C0B2F2BD401C8021490501435C
S11313E00878C0B270470830304901430878C0B269
S11313F0704718302E4901430878C0B2704700B5D1
S11314008421490501430878C0B2002801D0012095
S113141000E00020C0B200BD801D264901430878C9
S1131420C0B2704710B504002000FFF7E8FF0028A1
S113143008D02000FFF7D0FF012801D11E4802E0A8
S11314401E4800E0002010BD70B504002000FFF726
S1131450CAFF05002000FFF7CCFF06002000FFF7BD
S1131460E1FFA919C84070BD70B505002800FFF759
S1131470D3FF0600F6B2002E01D1114814E0F6B2F3
S1131480012E0AD12800FFF7CDFF04002800FFF742
S1131490AAFF01002000C84006E0F6B2022E02D1E5
S11314A00848006800E0002070BD000000009010B3
S11314B0000010100000081100127A0080841E0041
S11314C0006CDC021CF0FF1F00B59C2149050143A0
S11314D00878C0B2002801D0012000E00020C0B28A
S11314E000BDFEE770B506000D001400022D06D302
S11314F060221A491A48FFF708FCFFF705FC002D83
S113150007D1E4B2A00617497118174A0A431060BC
S113151006E0E4B2200713497118144A0A43106024
S113152070BD38B504000D00022D06D376220B4998
S11315300B48FFF7EAFBFFF7E7FB002D06D109484C
S11315402018094901430868C0B205E0054820187D
S1131550064901430868C0B232BD00005C170000B0
S11315600C190000041000000000081D0000081EF3
S113157000B51C480078000705D51A4800780821F2
S11315800143184801700020174908602A201749B0
S11315900870802040021649086016480068164901
S11315A00140144801601548006815490140C020F5
S11315B08004084311490860002012490870802003
S11315C01149087000201149087001201049087061
S11315D0002010490870104800780C210842FAD104
S11315E000BD000002D007400081044000E0074035
S11315F04480044000700440FFFFF3FF0480044073
S1131600FFFFFBC00840064018400640004006406B
S1131610014006400050064006400640433A5C64E0
S113162069736B5C776F726B5C70726F6A656374FD
S11316305C73646B5F6B6C32375C6D63752D7364C4
S11316406B5C64656D6F735C68656C6C6F5F776F02
S1131650726C645C6961725C6672646D6B6C323767
S11316607A2F2E2E2F2E2E2F2E2E2F2E2E2F706CC5
S11316706174666F726D2F68616C2F696E635C664E
S1131680736C5F706F72745F68616C2E6800000029
S113169080B50A00D2B201000E48FFF723FF01BD56
S11316A010B5002404E0E4B22000FFF7BBFC641C86
S11316B0E4B2052CF7D38020000207490860002417
S11316C004E0E4B22000FFF777FA641CE4B2052CCE
S11316D0F7D310BD007004401CF0FF1F80B500203C
S11316E0FFF7E7FA01210020FFF7D2FF1122E121E1
S11316F049020020FFF776FB01BDFEE7433A5C6434
S113170069736B5C776F726B5C70726F6A6563741C
S11317105C73646B5F6B6C32375C6D63752D7364E3
S11317206B5C706C6174666F726D5C7379737465F5
S11317306D5C7372635C636C6F636B5C4D4B4C32BA
S1131740375A3634345C66736C5F636C6F636B5FFB
S11317504D4B4C32375A3634342E6300433A5C6472
S113176069736B5C776F726B5C70726F6A656374BC
S11317705C73646B5F6B6C32375C6D63752D736483
S11317806B5C706C6174666F726D5C68616C5C73C9
S113179072635C73696D5C4D4B4C32375A3634342A
S11317A05C66736C5F73696D5F68616C5F4D4B4C15
S11317B032375A3634342E630000000000B50D4829
S11317C00D49884212D0002008E00B49042242430C
S11317D08958084A04234343D150401C07498908C7
S11317E08842F2D303480649086002E002480449EB
S11317F0086000BD000000000000000000000000C0
S113180008ED00E0696E7374616E6365203C2073BB
S1131810697A656F66286C70756172744761746566
S11318205461626C65292F73697A656F66286C70E0
S113183075617274476174655461626C655B305D97
S113184029000000696E7374616E6365203C207327
S1131850697A656F6628706F727447617465546144
S1131860626C65292F73697A656F6628706F72746C
S1131870476174655461626C655B305D29000000EA
S113188072B606480649074A02600A60064880475D
S11318900648804762B606480047000080E100E041
S11318A080E200E0FFFFFFFF71150000BD1700009C
S11318B0C919000030B401210268001D002A0FD0AC
S11318C00368C318446808300C4202D04D466D1EAC
S11318D064191D6825601B1D241D121FECD0F8E738
S11318E030BC704710B5074979441831064C7C4424
S11318F0163404E0081D0A68891888470100A142CB
S1131900F8D110BD2C0000004C000000696E737407
S1131910616E6365203C2048575F4C5055415254DA
S11319205F494E5354414E43455F434F554E540017
S11319304FF1FFFF140000000CF0FF1F0000000037
S113194075FFFFFF0C0000008C00000000F0FF1F7B
S11319500000000080B5FFF7A3FEFFF7BFFE0448B8
S1131960FFF7B7FAFFF7D6FAC0B2FFF7CDFAF9E7F7
S1131970A819000000F00BF8002801D0FFF7B2FF0F
S11319800020C046C046FFF7E5FF00F002F8012042
S1131990704780B500F002F801BDFEE707463846FF
S11319A0FFF7CAF9FBE700000D0A48656C6C6F206D
S11319B0576F726C64210A0A0D00000070696E2072
S11319C03C20333255000000C046C046C046C046E5
S11319D0FFF7D0FF898A8B8C8D000000949500005E
S11319E0004005400050054000480047E919000048
S10B19F000C00640005006404F
S90319C91A
